:020000040800F2
:100000000000032031040008830400089104000864
:10001000970400089D040008A304000800000000E5
:10002000000000000000000000000000A90400081B
:10003000B704000800000000C5040008D50400084B
:10004000810400088104000881040008810400087C
:10005000810400088104000881040008810400086C
:10006000810400088104000881040008810400085C
:10007000810400088104000881040008810400084C
:10008000810400088104000881040008810400083C
:10009000810400088104000881040008810400082C
:1000A000810400088104000881040008810400081C
:1000B000810400088104000881040008810400080C
:1000C00081040008810400088104000881040008FC
:1000D00081040008810400088104000881040008EC
:1000E00081040008810400088104000881040008DC
:1000F00081040008810400088104000881040008CC
:1001000081040008810400088104000881040008BB
:1001100081040008810400088104000881040008AB
:10012000810400088104000881040008810400089B
:10013000810400088104000881040008810400088B
:10014000810400088104000881040008810400087B
:10015000810400088104000881040008810400086B
:10016000810400088104000881040008810400085B
:10017000810400088104000881040008810400084B
:10018000810400088104000881040008810400083B
:10019000810400088104000881040008810400082B
:0C01A000810400088104000881040008AC
:1001AC0010B5054C237833B9044B13B10448AFF3A5
:1001BC0000800123237010BD1400002000000000FB
:1001CC009407000808B5034B1BB103490348AFF370
:1001DC00008008BD000000001800002094070008F3
:1001EC0080B483B000AF03463960FB7197F90730D8
:1001FC00002B0BDA0D49FB7903F00F03043B3A6833
:10020C00D2B21201D2B20B441A7609E0084997F91E
:10021C0007303A68D2B21201D2B20B4483F80023F1
:10022C0000BF0C37BD465DF8047B704700ED00E065
:10023C0000E100E080B582B000AF78607B68013BE4
:10024C00B3F1807F01D301230FE00A4A7B68013BA5
:10025C0053600F214FF0FF30FFF7C2FF054B002218
:10026C009A60044B07221A60002318460837BD46D3
:10027C0080BD00BF10E000E080B582B000AF00F0A0
:10028C0067F90C4B1B680C4A934200D0FEE7094BF4
:10029C001B680A4AA2FB03239B091846FFF7CAFFF7
:1002AC0078607B68002B00D0FEE700BF0837BD46A6
:1002BC0080BD00BF000000200095BA0AD34D62102B
:1002CC0080B485B000AF7860084B1B68FB6000BF42
:1002DC00064B1A68FB68D21A7B689A42F8D300BFA7
:1002EC001437BD465DF8047B704700BF300000201A
:1002FC0080B483B000AF0346FB71FB79002B00D0B8
:10030C0032E01C4A1B4B1B6B43F0400313631A4A2D
:10031C00194B1B6843F080631360174A164B5B68DC
:10032C0023F400535360144A134B9B6843F040630F
:10033C009360104A0F4B5B6C43F4804353640F4A39
:10034C000E4B1B6A43F00103136200BF0B4B1B6A7D
:10035C0003F48073B3F5807FF8D1074A064BDB6852
:10036C0023F04063D36000BF00BF0C37BD465DF87F
:10037C00047B7047003802400018024000380140EE
:10038C0080B483B000AF0346FB71FB79002B02D025
:10039C00012B05D008E0074B4FF400521A8303E001
:1003AC00054B01221A6000BF00BF0C37BD465DF83B
:1003BC00047B704700180240B402434280B483B0FF
:1003CC0000AF0346FB71FB79002B02D0012B05D04B
:1003DC0008E0074B4FF400525A8303E0054B002210
:1003EC001A6000BF00BF0C37BD465DF8047B704738
:1003FC0000180240B402434280B500AFFFF73CFF47
:10040C000020FFF775FF0020FFF7BAFF4FF496703E
:10041C00FFF756FF0020FFF7D1FF4FF42F70FFF7C7
:10042C004FFFF0E7DFF834D0002103E00C4B5B58B2
:10043C00435004310B480C4B42189A42F6D30B4AEA
:10044C0002E0002342F8043B094B9A42F9D300F036
:10045C0049F800F075F9FFF7CFFF70470000032053
:10046C00B407000800000020140000201400002035
:10047C0034000020FEE780B400AF00BFBD465DF83D
:10048C00047B704780B400AFFEE780B400AFFEE79A
:10049C0080B400AFFEE780B400AFFEE780B400AFDD
:1004AC0000BFBD465DF8047B704780B400AF00BF51
:1004BC00BD465DF8047B704780B400AF00BFBD46FD
:1004CC005DF8047B7047000080B400AF044B1B68E0
:1004DC000133034A136000BFBD465DF8047B7047CF
:1004EC003000002080B500AF164A164BD3F8883088
:1004FC0043F47003C2F88830134A134B1B6843F063
:10050C0001031360104B00229A600F4A0E4B1B68BC
:10051C0023F0847323F4803313600B4B0B4A5A6023
:10052C00094A094B1B6823F480231360064B0022F5
:10053C00DA6000F089F8034B4FF000629A6000BF5C
:10054C0080BD00BF00ED00E00038024010300024F8
:10055C0080B487B000AF00233B6100237B61022392
:10056C00FB600023BB6002237B60324B9B6803F073
:10057C000C033B613B69042B07D0082B09D0002BE3
:10058C003DD12D4B2D4A1A603DE02B4B2C4A1A6065
:10059C0039E0284B5B689B0D03F00103BB60254BD6
:1005AC005B6803F03F037B60BB68002B0CD0244AD4
:1005BC007B68B2FBF3F31F4A52689209C2F308023C
:1005CC0002FB03F37B610BE01C4A7B68B2FBF3F389
:1005DC00184A52689209C2F3080202FB03F37B61CA
:1005EC00144B5B681B0C03F0030301335B00FB60D3
:1005FC007A69FB68B2FBF3F30F4A136003E00E4B0E
:10060C000E4A1A6000BF0B4B9B681B0903F00F03CB
:10061C000C4AD35CDBB23B61074B1A683B6922FA8C
:10062C0003F3054A136000BF1C37BD465DF8047B1D
:10063C00704700BF00380240000000200024F40086
:10064C0000127A000400002080B483B000AF0023B5
:10065C007B6000233B60364A354B1B6843F4803388
:10066C001360334B1B6803F400333B607B6801332E
:10067C007B603B68002B03D17B68B3F5A06FF0D196
:10068C002B4B1B6803F40033002B02D001233B607F
:10069C0001E000233B603B68012B02D1244B254A2F
:1006AC005A60234A224B1B6C43F080531364224A3A
:1006BC00214B1B6843F4404313601D4A1C4B9B6841
:1006CC0093601B4A1A4B9B6843F400439360184A8F
:1006DC00174B9B6843F4A0539360154A144B1B684B
:1006EC0043F08073136000BF114B1B6803F0007361
:1006FC00002BF9D0114B40F205721A600C4A0C4BCE
:10070C009B6823F003039360094A094B9B6843F0F1
:10071C000203936000BF064B9B6803F00C03082B8D
:10072C00F9D100BF0C37BD465DF8047B704700BFA4
:10073C0000380240085A400700700040003C02405C
:10074C0070B50D4E0D4CA41BA4100025A54209D16B
:10075C000B4E0C4C00F018F8A41BA4100025A5425D
:10076C0005D170BD56F8253098470135EEE756F89F
:10077C00253098470135F2E7AC070008AC070008B4
:10078C00AC070008B0070008F8B500BFF8BC08BCFF
:10079C009E467047F8B500BFF8BC08BC9E46704733
:0407AC00D10100086F
:0407B000AD0100088F
:1007B4000095BA0A000000000000000001020304D2
:0407C4000607080913
:0400000508000431BA
:00000001FF
