:020000040800F2
:1000000000000320B907000845080008530800084D
:10001000590800085F080008650800080000000093
:100020000000000000000000000000006B08000855
:1000300079080008000000008708000895080008FB
:100040000D0800080D0800080D0800080D0800083C
:100050000D0800080D080008B1080008E5080008B0
:10006000010900081D0900080D0800080D08000816
:100070000D0800080D0800080D0800080D0800080C
:100080000D0800080D0800080D0800080D080008FC
:100090000D0800080D0800080D0800080D080008EC
:1000A0000D0800080D0800080D0800080D080008DC
:1000B0000D0800080D0800080D0800080D080008CC
:1000C0000D0800080D0800080D0800080D080008BC
:1000D0000D0800080D0800080D0800080D080008AC
:1000E0000D0800080D0800080D0800080D0800089C
:1000F0000D0800080D0800080D0800080D0800088C
:100100000D0800080D0800080D0800080D0800087B
:100110000D0800080D0800080D0800080D0800086B
:10012000390900080D0800080D0800080D0800082E
:100130000D0800080D0800080D0800080D0800084B
:100140000D0800080D0800080D0800080D0800083B
:100150000D0800080D0800080D0800080D0800082B
:100160000D0800080D0800080D0800080D0800081B
:100170000D0800080D0800080D0800080D0800080B
:100180000D0800080D0800080D0800080D080008FB
:100190000D0800080D0800080D0800080D080008EB
:0C01A0000D0800080D0800080D080008FC
:1001AC0010B5054C237833B9044B13B10448AFF3A5
:1001BC0000800123237010BD1400002000000000FB
:1001CC00080C000808B5034B1BB103490348AFF3F7
:1001DC00008008BD0000000018000020080C00087A
:1001EC0080B483B000AF03463960FB7197F90730D8
:1001FC00002B0BDA0D49FB7903F00F03043B3A6833
:10020C00D2B21201D2B20B441A7609E0084997F91E
:10021C0007303A68D2B21201D2B20B4483F80023F1
:10022C0000BF0C37BD465DF8047B704700ED00E065
:10023C0000E100E080B582B000AF78607B68013BE4
:10024C00B3F1807F01D301230FE00A4A7B68013BA5
:10025C0053600F214FF0FF30FFF7C2FF054B002218
:10026C009A60044B07221A60002318460837BD46D3
:10027C0080BD00BF10E000E080B582B000AF00F0A0
:10028C00A1FB0E4B1B680E4A934200D0FEE70B4BB2
:10029C001B680C4AA2FB03239B091846FFF7CAFFF5
:1002AC0078607B68002B00D0FEE700214FF0FF3018
:1002BC00FFF796FF00BF0837BD4680BD0000002049
:1002CC000095BA0AD34D621080B485B000AF786047
:1002DC00084B1B68FB6000BF064B1A68FB68D21A00
:1002EC007B689A42F8D300BF1437BD465DF8047B97
:1002FC00704700BFD00F002080B400AF294A294BB3
:10030C001B6B43F480031363274B1B6803F001033F
:10031C00012B0CD1244A244B1B6823F001031360DE
:10032C0000BF214B1B6803F00103012BF9D01E4ABF
:10033C001D4B1B6843F4403313601B4A1A4B1B685C
:10034C0043F080031360184A174B1B6843F4804337
:10035C001360154A144B1B6843F480531360124A04
:10036C00114B5B6943F0040353610F4A0E4B5B69FD
:10037C0043F0010353610C4A0B4B1B6843F40073AD
:10038C001360094A084B1B6843F480631360064AE8
:10039C00054B1B6843F01003136000BFBD465DF8AE
:1003AC00047B7047003802401064024080B485B072
:1003BC0000AFF860B9607A60074AFB689360064A40
:1003CC00BB68D360044A7B68536000BF1437BD46DA
:1003DC005DF8047B704700BF1064024080B400AF2E
:1003EC00064B3D229A60064A054B1B6843F00103FD
:1003FC00136000BFBD465DF8047B7047006402408B
:10040C001064024080B400AF134A134B5B6C43F48E
:10041C0080435364114A114B9B689360104A104BF4
:10042C009B6843F0010393600D4A0D4BDB6823F08E
:10043C000103D3600A4A0A4B1B6843F001031360A3
:10044C00074A074B5B6843F00103536000BFBD468E
:10045C005DF8047B704700BF003802400038014053
:10046C00003C014080B483B000AF0346FB71FB79C4
:10047C00002B02D0022B33D065E0364A354B1B6B78
:10048C0043F040031363344A334B1B6843F08063DF
:10049C001360314A304B5B6823F4005353602E4A8F
:1004AC002D4B9B6843F0406393602A4A294B5B6C4D
:1004BC0043F480435364294A284B1B6A43F00103DD
:1004CC00136200BF254B1B6A03F48073B3F5807F66
:1004DC00F8D1214A204BDB6823F04063D36032E033
:1004EC001C4A1C4B1B6B43F0400313631A4A1A4BF8
:1004FC001B6843F080531360174A174B5B6823F457
:10050C0080435360144A144B9B6843F040539360F0
:10051C00104A104B5B6C43F4804353640F4A0F4BEF
:10052C001B6A43F00103136200BF0C4B1B6A03F4FC
:10053C008073B3F5807FF8D1074A074BDB6823F053
:10054C004053D36000BF00BF0C37BD465DF8047B41
:10055C00704700BF003802400018024000380140CC
:10056C0080B483B000AF0346FB71FB79012B0ED036
:10057C00022B07D0002B00D00DE00A4B4FF4005299
:10058C001A8308E0074B4FF480421A8303E0064BB2
:10059C0001221A6000BF00BF0C37BD465DF8047B1A
:1005AC00704700BF00180240B402434280B483B0CD
:1005BC0000AF0346FB71FB79012B0ED0022B07D049
:1005CC00002B00D00DE00A4B4FF400525A8308E088
:1005DC00074B4FF480425A8303E0064B00221A600B
:1005EC0000BF00BF0C37BD465DF8047B704700BFF1
:1005FC0000180240B402434280B400AF0B4A0B4BCC
:10060C001B6B43F001031363094A094B1B6823F06E
:10061C0003031360064A064BDB6863F00303D360E5
:10062C0000BFBD465DF8047B704700BF0038024038
:10063C000000024080B485B000AF78607B6803F0A6
:10064C000703FB600C4BDB68BB60BA684FF6FF031B
:10065C001340BB60FB681A02BB68134343F0BF63D3
:10066C0043F40033BB60044ABB68D36000BF14374B
:10067C00BD465DF8047B704700ED00E080B483B0AC
:10068C0000AF0346FB71094997F907305B09FA790A
:10069C0002F01F02012000FA02F241F8232000BFF1
:1006AC000C37BD465DF8047B704700BF00E100E0ED
:1006BC0080B483B000AF03463960FB7197F9073003
:1006CC00002B0BDA0D49FB7903F00F03043B3A685E
:1006DC00D2B21201D2B20B441A7609E0084997F94A
:1006EC0007303A68D2B21201D2B20B4483F800231D
:1006FC0000BF0C37BD465DF8047B704700ED00E091
:10070C0000E100E080B500AF0320FFF793FF00216C
:10071C004FF0FF30FFF7CCFF01210620FFF7C8FF99
:10072C0001213820FFF7C4FF0620FFF7A7FF382070
:10073C00FFF7A4FF00BF80BD80B582B000AF0023DF
:10074C00FB70FFF799FD0020FFF78CFE0220FFF7EE
:10075C0089FEFFF751FFFFF755FEFFF7D3FFFFF7B9
:10076C00CBFD4FF4FA720F490F48FFF71FFE002321
:10077C007B600BE07B687A6802FB03F319460A4A3C
:10078C007B6842F823107B6801337B607B68B3F590
:10079C00FA7FEFD362B60020FFF7E2FEFFF71EFEF2
:1007AC00FEE700BF0008002030000020DFF838D042
:1007BC0072B6002103E00D4B5B58435004310C48DA
:1007CC000C4B42189A42F6D30B4A02E0002342F833
:1007DC00043B0A4B9A42F9D300F0BEF800F0EAF958
:1007EC00FFF7AAFF7047000000000320280C000848
:1007FC00000000201400002014000020D40F002062
:10080C00FEE7000080B483B000AF0346FB710949DA
:10081C0097F907305B09FA7902F01F02012000FA00
:10082C0002F2403341F8232000BF0C37BD465DF87F
:10083C00047B704700E100E080B400AF00BFBD4610
:10084C005DF8047B704780B400AFFEE780B400AF66
:10085C00FEE780B400AFFEE780B400AFFEE780B4E3
:10086C0000AF00BFBD465DF8047B704780B400AF9D
:10087C0000BFBD465DF8047B704780B400AF00BF7D
:10088C00BD465DF8047B704780B400AF044B1B6819
:10089C000133034A136000BFBD465DF8047B70470B
:1008AC00D00F002080B500AF0020FFF759FE4FF4A9
:1008BC007A70FFF709FD0020FFF778FE6420FFF740
:1008CC0003FD044A034B5B6943F00103536100BF12
:1008DC0080BD00BF003C014080B500AF0020FFF799
:1008EC0065FE4FF4FA70FFF7EFFC0820FFF78AFF64
:1008FC0000BF80BD80B500AF0220FFF731FE4FF482
:10090C00FA70FFF7E1FC0920FFF77CFF00BF80BD08
:10091C0080B500AF0220FFF749FE4FF4FA70FFF7E5
:10092C00D3FC0620FFF76EFF00BF80BD80B500AF83
:10093C00084B1B6803F02003202B06D10020FFF787
:10094C0035FE044B20229A6002E00220FFF708FEDD
:10095C0000BF80BD0064024080B500AF164A164B44
:10096C00D3F8883043F47003C2F88830134A134B21
:10097C001B6843F001031360104B00229A600F4A6E
:10098C000E4B1B6823F0847323F4803313600B4BE2
:10099C000B4A5A60094A094B1B6823F480231360E5
:1009AC00064B0022DA6000F089F8034B4FF000622E
:1009BC009A6000BF80BD00BF00ED00E0003802402F
:1009CC001030002480B487B000AF00233B610023BB
:1009DC007B610223FB600023BB6002237B60324BF4
:1009EC009B6803F00C033B613B69042B07D0082B7D
:1009FC0009D0002B3DD12D4B2D4A1A603DE02B4BDD
:100A0C002C4A1A6039E0284B5B689B0D03F00103FC
:100A1C00BB60254B5B6803F03F037B60BB68002B1E
:100A2C000CD0244A7B68B2FBF3F31F4A526892093C
:100A3C00C2F3080202FB03F37B610BE01C4A7B68E8
:100A4C00B2FBF3F3184A52689209C2F3080202FB94
:100A5C0003F37B61144B5B681B0C03F00303013342
:100A6C005B00FB607A69FB68B2FBF3F30F4A13601F
:100A7C0003E00E4B0E4A1A6000BF0B4B9B681B0920
:100A8C0003F00F030C4AD35CDBB23B61074B1A68D3
:100A9C003B6922FA03F3054A136000BF1C37BD46BD
:100AAC005DF8047B704700BF003802400000002056
:100ABC000024F40000127A000400002080B483B0FB
:100ACC0000AF00237B6000233B60364A354B1B682C
:100ADC0043F480331360334B1B6803F400333B60E7
:100AEC007B6801337B603B68002B03D17B68B3F5DB
:100AFC00A06FF0D12B4B1B6803F40033002B02D0FA
:100B0C0001233B6001E000233B603B68012B02D1D9
:100B1C00244B254A5A60234A224B1B6C43F08053CA
:100B2C001364224A214B1B6843F4404313601D4A53
:100B3C001C4B9B6893601B4A1A4B9B6843F4004305
:100B4C009360184A174B9B6843F4A0539360154A63
:100B5C00144B1B6843F08073136000BF114B1B6870
:100B6C0003F00073002BF9D0114B40F205721A60A0
:100B7C000C4A0C4B9B6823F003039360094A094B06
:100B8C009B6843F00203936000BF064B9B6803F025
:100B9C000C03082BF9D100BF0C37BD465DF8047B64
:100BAC00704700BF00380240085A400700700040F0
:100BBC00003C024070B50D4E0D4CA41BA41000253A
:100BCC00A54209D10B4E0C4C00F018F8A41BA41034
:100BDC000025A54205D170BD56F825309847013542
:100BEC00EEE756F8253098470135F2E7200C00085F
:100BFC00200C0008200C0008240C0008F8B500BFDD
:100C0C00F8BC08BC9E467047F8B500BFF8BC08BCE1
:040C1C009E46704739
:040C2000D1010008F6
:040C2400AD01000816
:100C28000095BA0A00000000000000000102030459
:040C3800060708099A
:04000005080007B92F
:00000001FF
