:020000040800F2
:100000000000032051060008DD060008EB0600088A
:10001000F1060008F7060008FD06000800000000D1
:1000200000000000000000000000000003070008BE
:1000300011070008000000001F0700082D07000836
:10004000A5060008A5060008A5060008A5060008E4
:10005000A5060008A5060008490700087D07000856
:1000600099070008B5070008A5060008A5060008BE
:10007000A5060008A5060008A5060008A5060008B4
:10008000A5060008A5060008A5060008A5060008A4
:10009000A5060008A5060008A5060008A506000894
:1000A000A5060008A5060008A5060008A506000884
:1000B000A5060008A5060008A5060008A506000874
:1000C000A5060008A5060008A5060008A506000864
:1000D000A5060008A5060008A5060008A506000854
:1000E000A5060008A5060008A5060008A506000844
:1000F000A5060008A5060008A5060008A506000834
:10010000A5060008A5060008A5060008A506000823
:10011000A5060008A5060008A5060008A506000813
:10012000A5060008A5060008A5060008A506000803
:10013000A5060008A5060008A5060008A5060008F3
:10014000A5060008A5060008A5060008A5060008E3
:10015000A5060008A5060008A5060008A5060008D3
:10016000A5060008A5060008A5060008A5060008C3
:10017000A5060008A5060008A5060008A5060008B3
:10018000A5060008A5060008A5060008A5060008A3
:10019000A5060008A5060008A5060008A506000893
:0C01A000A5060008A5060008A50600083A
:1001AC0010B5054C237833B9044B13B10448AFF3A5
:1001BC0000800123237010BD1400002000000000FB
:1001CC00740A000808B5034B1BB103490348AFF38D
:1001DC00008008BD0000000018000020740A000810
:1001EC0080B483B000AF03463960FB7197F90730D8
:1001FC00002B0BDA0D49FB7903F00F03043B3A6833
:10020C00D2B21201D2B20B441A7609E0084997F91E
:10021C0007303A68D2B21201D2B20B4483F80023F1
:10022C0000BF0C37BD465DF8047B704700ED00E065
:10023C0000E100E080B582B000AF78607B68013BE4
:10024C00B3F1807F01D301230FE00A4A7B68013BA5
:10025C0053600F214FF0FF30FFF7C2FF054B002218
:10026C009A60044B07221A60002318460837BD46D3
:10027C0080BD00BF10E000E080B582B000AF00F0A0
:10028C00D7FA0E4B1B680E4A934200D0FEE70B4B7D
:10029C001B680C4AA2FB03239B091846FFF7CAFFF5
:1002AC0078607B68002B00D0FEE700214FF0FF3018
:1002BC00FFF796FF00BF0837BD4680BD0000002049
:1002CC000095BA0AD34D621080B485B000AF786047
:1002DC00084B1B68FB6000BF064B1A68FB68D21A00
:1002EC007B689A42F8D300BF1437BD465DF8047B97
:1002FC00704700BF3000002080B400AF134A134B8E
:10030C005B6C43F480435364114A114B9B689360BC
:10031C00104A104B9B6843F0010393600D4A0D4B40
:10032C00DB6823F00103D3600A4A0A4B1B6843F0D5
:10033C0001031360074A074B5B6843F001035360EA
:10034C0000BFBD465DF8047B704700BF003802401B
:10035C0000380140003C014080B483B000AF03463C
:10036C00FB71FB79002B02D0022B33D065E0364AAF
:10037C00354B1B6B43F040031363344A334B1B6800
:10038C0043F080631360314A304B5B6823F40053B5
:10039C0053602E4A2D4B9B6843F0406393602A4A6E
:1003AC00294B5B6C43F480435364294A284B1B6AEA
:1003BC0043F00103136200BF254B1B6A03F48073E7
:1003CC00B3F5807FF8D1214A204BDB6823F04063E2
:1003DC00D36032E01C4A1C4B1B6B43F0400313638D
:1003EC001A4A1A4B1B6843F080531360174A174B79
:1003FC005B6823F480435360144A144B9B6843F0AE
:10040C0040539360104A104B5B6C43F4804353642D
:10041C000F4A0F4B1B6A43F00103136200BF0C4BD6
:10042C001B6A03F48073B3F5807FF8D1074A074B3E
:10043C00DB6823F04053D36000BF00BF0C37BD46D0
:10044C005DF8047B704700BF003802400018024082
:10045C000038014080B483B000AF0346FB71FB79D8
:10046C00012B0ED0022B07D0002B00D00DE00A4B35
:10047C004FF400521A8308E0074B4FF480421A8362
:10048C0003E0064B01221A6000BF00BF0C37BD46CB
:10049C005DF8047B704700BF00180240B402434271
:1004AC0080B483B000AF0346FB71FB79012B0ED0F7
:1004BC00022B07D0002B00D00DE00A4B4FF400525A
:1004CC005A8308E0074B4FF480425A8303E0064BF3
:1004DC0000221A6000BF00BF0C37BD465DF8047BDC
:1004EC00704700BF00180240B402434280B400AF12
:1004FC000B4A0B4B1B6B43F001031363094A094B6B
:10050C001B6823F003031360064A064BDB6863F099
:10051C000303D36000BFBD465DF8047B704700BF8A
:10052C00003802400000024080B485B000AF786013
:10053C007B6803F00703FB600C4BDB68BB60BA689D
:10054C004FF6FF031340BB60FB681A02BB681343F2
:10055C0043F0BF6343F40033BB60044ABB68D36011
:10056C0000BF1437BD465DF8047B704700ED00E01A
:10057C0080B483B000AF0346FB71094997F907308B
:10058C005B09FA7902F01F02012000FA02F241F82D
:10059C00232000BF0C37BD465DF8047B704700BFBD
:1005AC0000E100E080B483B000AF03463960FB711A
:1005BC0097F90730002B0BDA0D49FB7903F00F0389
:1005CC00043B3A68D2B21201D2B20B441A7609E05B
:1005DC00084997F907303A68D2B21201D2B20B44EB
:1005EC0083F8002300BF0C37BD465DF8047B7047D1
:1005FC0000ED00E000E100E080B500AF0320FFF764
:10060C0093FF00214FF0FF30FFF7CCFF01210620B4
:10061C00FFF7C8FF0620FFF7ABFF00BF80BD80B51A
:10062C0000AFFFF729FE0020FFF796FE0220FFF730
:10063C0093FEFFF75BFFFFF75FFEFFF7DDFF62B690
:10064C00FEE70000DFF838D072B6002103E00D4B56
:10065C005B58435004310C480C4B42189A42F6D369
:10066C000B4A02E0002342F8043B0A4B9A42F9D3AE
:10067C0000F0A8F800F0D4F9FFF7D1FF70470000A4
:10068C0000000320940A0008000000201400002041
:10069C001400002034000020FEE7000080B483B07A
:1006AC0000AF0346FB71094997F907305B09FA79EA
:1006BC0002F01F02012000FA02F2403341F823201D
:1006CC0000BF0C37BD465DF8047B704700E100E0CD
:1006DC0080B400AF00BFBD465DF8047B704780B4AA
:1006EC0000AFFEE780B400AFFEE780B400AFFEE7DA
:1006FC0080B400AFFEE780B400AF00BFBD465DF82C
:10070C00047B704780B400AF00BFBD465DF8047B2E
:10071C00704780B400AF00BFBD465DF8047B7047E6
:10072C0080B400AF044B1B680133034A136000BF55
:10073C00BD465DF8047B70473000002080B500AFEB
:10074C000020FFF787FE4FF47A70FFF7BDFD002005
:10075C00FFF7A6FE6420FFF7B7FD044A034B5B6965
:10076C0043F00103536100BF80BD00BF003C01405A
:10077C0080B500AF0020FFF793FE4FF4FA70FFF73F
:10078C00A3FD0820FFF78AFF00BF80BD80B500AF36
:10079C000220FFF75FFE4FF4FA70FFF795FD09207A
:1007AC00FFF77CFF00BF80BD80B500AF0220FFF7D4
:1007BC0077FE4FF4FA70FFF787FD0620FFF76EFF08
:1007CC0000BF80BD80B500AF164A164BD3F88830F9
:1007DC0043F47003C2F88830134A134B1B6843F080
:1007EC0001031360104B00229A600F4A0E4B1B68DA
:1007FC0023F0847323F4803313600B4B0B4A5A6041
:10080C00094A094B1B6823F480231360064B002212
:10081C00DA6000F089F8034B4FF000629A6000BF79
:10082C0080BD00BF00ED00E0003802401030002415
:10083C0080B487B000AF00233B6100237B610223AF
:10084C00FB600023BB6002237B60324B9B6803F090
:10085C000C033B613B69042B07D0082B09D0002B00
:10086C003DD12D4B2D4A1A603DE02B4B2C4A1A6082
:10087C0039E0284B5B689B0D03F00103BB60254BF3
:10088C005B6803F03F037B60BB68002B0CD0244AF1
:10089C007B68B2FBF3F31F4A52689209C2F3080259
:1008AC0002FB03F37B610BE01C4A7B68B2FBF3F3A6
:1008BC00184A52689209C2F3080202FB03F37B61E7
:1008CC00144B5B681B0C03F0030301335B00FB60F0
:1008DC007A69FB68B2FBF3F30F4A136003E00E4B2B
:1008EC000E4A1A6000BF0B4B9B681B0903F00F03E9
:1008FC000C4AD35CDBB23B61074B1A683B6922FAAA
:10090C0003F3054A136000BF1C37BD465DF8047B3A
:10091C00704700BF00380240000000200024F400A3
:10092C0000127A000400002080B483B000AF0023D2
:10093C007B6000233B60364A354B1B6843F48033A5
:10094C001360334B1B6803F400333B607B6801334B
:10095C007B603B68002B03D17B68B3F5A06FF0D1B3
:10096C002B4B1B6803F40033002B02D001233B609C
:10097C0001E000233B603B68012B02D1244B254A4C
:10098C005A60234A224B1B6C43F080531364224A57
:10099C00214B1B6843F4404313601D4A1C4B9B685E
:1009AC0093601B4A1A4B9B6843F400439360184AAC
:1009BC00174B9B6843F4A0539360154A144B1B6868
:1009CC0043F08073136000BF114B1B6803F000737E
:1009DC00002BF9D0114B40F205721A600C4A0C4BEB
:1009EC009B6823F003039360094A094B9B6843F00F
:1009FC000203936000BF064B9B6803F00C03082BAB
:100A0C00F9D100BF0C37BD465DF8047B704700BFC1
:100A1C0000380240085A400700700040003C024079
:100A2C0070B50D4E0D4CA41BA4100025A54209D188
:100A3C000B4E0C4C00F018F8A41BA4100025A5427A
:100A4C0005D170BD56F8253098470135EEE756F8BC
:100A5C00253098470135F2E78C0A00088C0A00080B
:100A6C008C0A0008900A0008F8B500BFF8BC08BC56
:100A7C009E467047F8B500BFF8BC08BC9E46704750
:040A8C00D10100088C
:040A9000AD010008AC
:100A94000095BA0A000000000000000001020304EF
:040AA4000607080930
:040000050800065198
:00000001FF
