:020000040800F2
:1000000000000320FD0A0008890B0008970B000878
:100010009D0B0008A30B0008A90B000800000000BE
:10002000000000000000000000000000AF0B00080E
:10003000BD0B000800000000CB0B0008D90B000826
:10004000510B0008510B0008510B0008510B000820
:10005000510B0008510B0008F50B0008290C000893
:10006000450C0008610C0008510B0008510B0008FA
:10007000510B0008510B0008510B0008510B0008F0
:10008000510B0008510B0008510B0008510B0008E0
:10009000510B0008510B0008510B0008510B0008D0
:1000A000510B0008510B0008510B0008510B0008C0
:1000B000510B0008510B0008510B0008510B0008B0
:1000C000510B0008510B0008510B0008510B0008A0
:1000D000510B0008A90C0008510B0008510B000837
:1000E000510B0008510B0008510B0008510B000880
:1000F000510B0008510B0008510B0008510B000870
:10010000510B0008510B0008510B0008510B00085F
:10011000510B0008510B0008510B0008510B00084F
:100120007D0C0008510B0008510B0008510B000812
:10013000510B0008510B0008510B0008510B00082F
:10014000510B0008510B0008510B0008510B00081F
:10015000510B0008510B0008510B0008510B00080F
:10016000510B0008510B0008510B0008510B0008FF
:10017000510B0008510B0008510B0008510B0008EF
:10018000510B0008510B0008510B0008510B0008DF
:10019000510B0008510B0008510B0008510B0008CF
:0C01A000510B0008510B0008510B000827
:1001AC0010B5054C237833B9044B13B10448AFF3A5
:1001BC0000800123237010BD1400002000000000FB
:1001CC00580F000808B5034B1BB103490348AFF3A4
:1001DC00008008BD0000000018000020580F000827
:1001EC0080B483B000AF03463960FB7197F90730D8
:1001FC00002B0BDA0D49FB7903F00F03043B3A6833
:10020C00D2B21201D2B20B441A7609E0084997F91E
:10021C0007303A68D2B21201D2B20B4483F80023F1
:10022C0000BF0C37BD465DF8047B704700ED00E065
:10023C0000E100E080B582B000AF78607B68013BE4
:10024C00B3F1807F01D301230FE00A4A7B68013BA5
:10025C0053600F214FF0FF30FFF7C2FF054B002218
:10026C009A60044B07221A60002318460837BD46D3
:10027C0080BD00BF10E000E080B582B000AF00F0A0
:10028C0049FD0E4B1B680E4A934200D0FEE70B4B08
:10029C001B680C4AA2FB03239B091846FFF7CAFFF5
:1002AC0078607B68002B00D0FEE700214FF0FF3018
:1002BC00FFF796FF00BF0837BD4680BD0000002049
:1002CC000095BA0AD34D621080B485B000AF786047
:1002DC00084B1B68FB6000BF064B1A68FB68D21A00
:1002EC007B689A42F8D300BF1437BD465DF8047B97
:1002FC00704700BFCC01002080B483B000AF034630
:10030C00FB71FB79002B02D0022B33D065E0364A0F
:10031C00354B1B6B43F040031363344A334B1B6860
:10032C0043F080631360314A304B5B6823F4005315
:10033C0053602E4A2D4B9B6843F0406393602A4ACE
:10034C00294B5B6C43F480435364294A284B1B6A4A
:10035C0043F00103136200BF254B1B6A03F4807347
:10036C00B3F5807FF8D1214A204BDB6823F0406342
:10037C00D36032E01C4A1C4B1B6B43F040031363ED
:10038C001A4A1A4B1B6843F080531360174A174BD9
:10039C005B6823F480435360144A144B9B6843F00E
:1003AC0040539360104A104B5B6C43F4804353648E
:1003BC000F4A0F4B1B6A43F00103136200BF0C4B37
:1003CC001B6A03F48073B3F5807FF8D1074A074B9F
:1003DC00DB6823F04053D36000BF00BF0C37BD4631
:1003EC005DF8047B704700BF0038024000180240E3
:1003FC000038014080B483B000AF0346FB71FB7939
:10040C00012B0ED0022B07D0002B00D00DE00A4B95
:10041C004FF400521A8308E0074B4FF480421A83C2
:10042C0003E0064B01221A6000BF00BF0C37BD462B
:10043C005DF8047B704700BF00180240B4024342D1
:10044C0080B483B000AF0346FB71FB79012B0ED057
:10045C00022B07D0002B00D00DE00A4B4FF40052BA
:10046C005A8308E0074B4FF480425A8303E0064B53
:10047C0000221A6000BF00BF0C37BD465DF8047B3C
:10048C00704700BF00180240B402434280B485B0EC
:10049C0000AF78607B6803F00703FB600C4BDB68F4
:1004AC00BB60BA684FF6FF031340BB60FB681A02CF
:1004BC00BB68134343F0BF6343F40033BB60044A8F
:1004CC00BB68D36000BF1437BD465DF8047B704732
:1004DC0000ED00E080B483B000AF0346FB71094926
:1004EC0097F907305B09FA7902F01F02012000FA34
:1004FC0002F241F8232000BF0C37BD465DF8047BA7
:10050C00704700BF00E100E080B483B000AF034649
:10051C003960FB7197F90730002B0BDA0D49FB7929
:10052C0003F00F03043B3A68D2B21201D2B20B446F
:10053C001A7609E0084997F907303A68D2B21201E5
:10054C00D2B20B4483F8002300BF0C37BD465DF8D4
:10055C00047B704700ED00E000E100E080B500AFE7
:10056C000320FFF793FF00214FF0FF30FFF7CCFF84
:10057C0001210620FFF7C8FF01213820FFF7C4FF37
:10058C000620FFF7A7FF3820FFF7A4FF00BF80BDB0
:10059C0080B485B000AF78600B46FB707B68002B95
:1005AC0018D00023FB6011E000BF0D4B1B889BB2E1
:1005BC0003F08003002BF8D00949FB687A681344D8
:1005CC001B789BB28B80FB680133FB60FA78FB686D
:1005DC009A42E9DC00BF1437BD465DF8047B7047D6
:1005EC000010014080B483B000AF224B1B78002B6D
:1005FC0027D1214B1B68002B35D000237B600BE0EF
:10060C001E4A7B68134419781D4A7B6813440A46BA
:10061C001A707B6801337B60174B1B687A689A42AF
:10062C00EEDB154B1B68164A0021D154124B1B688C
:10063C00DBB20133DAB2134B1A700F4B00221A6083
:10064C0011E00D4B1B68C82B02D10B4B00221A601A
:10065C00094B1B68074A1178084AD154064B1B6892
:10066C000133054A136000BF0C37BD465DF8047BAF
:10067C00704700BF32000020000100200401002060
:10068C0034000020FD00002080B487B000AFF8607B
:10069C00B9601346FB710123FB75FB68002B18D066
:1006AC00BB68002B15D000233B610EE03B69FA6858
:1006BC0013441A783B69B9680B441B789A4201D0F1
:1006CC000023FB753B6901333B61FA793B699A4224
:1006DC00ECDCFB7D18461C37BD465DF8047B70478F
:1006EC0080B400AF204A204B1B6B43F00103136313
:1006FC001E4A1E4B1B6823F4701313601B4A1B4BC2
:10070C001B6843F420131360184A184B5B6823F4DE
:10071C0000735360154A154B9B6823F44023936078
:10072C00124A124B9B6843F4802393600F4A0F4B81
:10073C00DB6823F47013D3600C4A0C4BDB6843F476
:10074C00A013D360094A094B5B6A23F47F6353629D
:10075C00064A064B5B6A43F4EE63536200BFBD4628
:10076C005DF8047B704700BF003802400000024077
:10077C0080B400AF1D4B10225A641D4A1C4B9B8940
:10078C009BB2C3F30E039BB29381194A184B9B8AFD
:10079C009BB243F400639BB29382154A144B9B8922
:1007AC009BB243F480539BB29381114A104B1B8A2A
:1007BC009BB223F440539BB213820D4A0C4B9B8982
:1007CC009BB243F480639BB29381094A084B9B898B
:1007DC009BB243F400739BB29381054B40F20D32F4
:1007EC001A8100BFBD465DF8047B7047003802409B
:1007FC000010014080B400AF164A164B9B899BB287
:10080C0043F400539BB29381124A124B9B899BB2C7
:10081C0043F008039BB293810E4A0E4B9B899BB20B
:10082C0043F004039BB293810A4A0A4B9B899BB207
:10083C0043F020039BB29381064A064B9B899BB2E3
:10084C0043F480739BB2938100BFBD465DF8047B7B
:10085C00704700BF0010014080B582B000AF704BF4
:10086C001B78012B0FD0022B02D0002B11D011E0E2
:10087C000D216C48FFF78CFE6B4B00221A70684BF5
:10088C0000221A7006E0FFF7ADFE654B00221A70CD
:10089C0000E000BF644B1B78042B00F2B58001A272
:1008AC0052F823F0C5080008D5080008ED08000828
:1008BC00FD080008390900080D215C48FFF768FEA7
:1008CC00594B01221A70A6E0594B1B78002B00F0F3
:1008DC009D80574B00221A70534B02221A7095E0E0
:1008EC0014215448FFF754FE4F4B03221A7092E028
:1008FC004F4B1B78002B00F08B8006214E48FFF7E6
:10090C0047FE4B4B1B7819464C48FFF741FE15210F
:10091C004B48FFF73DFE34214A48FFF739FE444B64
:10092C0000221A70404B04221A7071E0404B1B7865
:10093C00002B6FD03E4B00221A7000233B7100231A
:10094C00FB710023BB7100237B7112223B493E4893
:10095C00FFF79AFE03463B713B79012B07D1002030
:10096C00FFF748FD05213948FFF712FE06E010227B
:10097C0032493748FFF788FE0346FB71FB79012BA0
:10098C0007D10220FFF736FD05213048FFF700FEA6
:10099C0009E03B79002B06D1132228492D48FFF79B
:1009AC0073FE0346BB71BB79012B07D10020FFF707
:1009BC0047FD05212548FFF7EBFD0CE0FB79002BEB
:1009CC0009D13B79002B06D111221C492248FFF793
:1009DC005BFE03467B717B79012B07D10220FFF76D
:1009EC002FFD05211948FFF7D3FD13E0BB79002B30
:1009FC0010D1FB79002B0DD13B79002B0AD10E21A4
:100A0C001648FFF7C5FD05E000BF04E000BF02E09B
:100A1C0000BF00E000BF00BF0837BD4680BD00BF6F
:100A2C00310000204C10000830000020700F00082E
:100A3C00FD000020800F0008940F000834000020F7
:100A4C009C0F0008B40F0008E80F000834100008D1
:100A5C00FC0F00080C100008201000083C100008C7
:100A6C0080B400AF144B1B889BB203F00103012B25
:100A7C000CD100BF104B1B889BB203F02003202B22
:100A8C00F8D10D4B9B880D4B02221A700A4B1B8818
:100A9C009BB203F02003202B08D1074B9B889BB201
:100AAC00DAB2074B1A70054B01221A7000BFBD4613
:100ABC005DF8047B704700BF00100140310000203E
:100ACC003200002080B500AFFFF7D6FB0020FFF707
:100ADC0013FC0220FFF710FCFFF740FDFFF700FEB0
:100AEC00FFF746FE62B6FFF785FEFFF7B5FEFCE7A3
:100AFC00DFF838D072B6002103E00D4B5B58435041
:100B0C0004310C480C4B42189A42F6D30B4A02E0C3
:100B1C00002342F8043B0A4B9A42F9D300F0C4F884
:100B2C0000F0F0F9FFF7CEFF704700000000032043
:100B3C0064100008000000201400002014000020A5
:100B4C00D0010020FEE7000080B483B000AF034664
:100B5C00FB71094997F907305B09FA7902F01F021A
:100B6C00012000FA02F2403341F8232000BF0C3779
:100B7C00BD465DF8047B704700E100E080B400AF37
:100B8C0000BFBD465DF8047B704780B400AFFEE744
:100B9C0080B400AFFEE780B400AFFEE780B400AFD6
:100BAC00FEE780B400AF00BFBD465DF8047B704724
:100BBC0080B400AF00BFBD465DF8047B704780B4C5
:100BCC0000AF00BFBD465DF8047B704780B400AF3A
:100BDC00044B1B680133034A136000BFBD465DF82C
:100BEC00047B7047CC01002080B500AF0020FFF7DC
:100BFC0001FC4FF47A70FFF767FB0020FFF720FC35
:100C0C006420FFF761FB044A034B5B6943F001036B
:100C1C00536100BF80BD00BF003C014080B500AFF8
:100C2C000020FFF70DFC4FF4FA70FFF74DFB082086
:100C3C00FFF78AFF00BF80BD80B500AF0220FFF731
:100C4C00D9FB4FF4FA70FFF73FFB0920FFF77CFF4D
:100C5C0000BF80BD80B500AF0220FFF7F1FB4FF461
:100C6C00FA70FFF731FB0620FFF76EFF00BF80BD67
:100C7C0080B500AF084B1B6803F02003202B06D176
:100C8C000020FFF7DDFB044B20229A6002E00220DB
:100C9C00FFF7B0FB00BF80BD0064024080B500AF21
:100CAC00FFF7DEFE00BF80BD80B500AF164A164BC5
:100CBC00D3F8883043F47003C2F88830134A134BCE
:100CCC001B6843F001031360104B00229A600F4A1B
:100CDC000E4B1B6823F0847323F4803313600B4B8F
:100CEC000B4A5A60094A094B1B6823F48023136092
:100CFC00064B0022DA6000F089F8034B4FF00062DB
:100D0C009A6000BF80BD00BF00ED00E000380240DB
:100D1C001030002480B487B000AF00233B61002367
:100D2C007B610223FB600023BB6002237B60324BA0
:100D3C009B6803F00C033B613B69042B07D0082B29
:100D4C0009D0002B3DD12D4B2D4A1A603DE02B4B89
:100D5C002C4A1A6039E0284B5B689B0D03F00103A9
:100D6C00BB60254B5B6803F03F037B60BB68002BCB
:100D7C000CD0244A7B68B2FBF3F31F4A52689209E9
:100D8C00C2F3080202FB03F37B610BE01C4A7B6895
:100D9C00B2FBF3F3184A52689209C2F3080202FB41
:100DAC0003F37B61144B5B681B0C03F003030133EF
:100DBC005B00FB607A69FB68B2FBF3F30F4A1360CC
:100DCC0003E00E4B0E4A1A6000BF0B4B9B681B09CD
:100DDC0003F00F030C4AD35CDBB23B61074B1A6880
:100DEC003B6922FA03F3054A136000BF1C37BD466A
:100DFC005DF8047B704700BF003802400000002003
:100E0C000024F40000127A000400002080B483B0A7
:100E1C0000AF00237B6000233B60364A354B1B68D8
:100E2C0043F480331360334B1B6803F400333B6093
:100E3C007B6801337B603B68002B03D17B68B3F587
:100E4C00A06FF0D12B4B1B6803F40033002B02D0A6
:100E5C0001233B6001E000233B603B68012B02D186
:100E6C00244B254A5A60234A224B1B6C43F0805377
:100E7C001364224A214B1B6843F4404313601D4A00
:100E8C001C4B9B6893601B4A1A4B9B6843F40043B2
:100E9C009360184A174B9B6843F4A0539360154A10
:100EAC00144B1B6843F08073136000BF114B1B681D
:100EBC0003F00073002BF9D0114B40F205721A604D
:100ECC000C4A0C4B9B6823F003039360094A094BB3
:100EDC009B6843F00203936000BF064B9B6803F0D2
:100EEC000C03082BF9D100BF0C37BD465DF8047B11
:100EFC00704700BF00380240085A4007007000409D
:100F0C00003C024070B50D4E0D4CA41BA4100025E6
:100F1C00A54209D10B4E0C4C00F018F8A41BA410E0
:100F2C000025A54205D170BD56F8253098470135EE
:100F3C00EEE756F8253098470135F2E75C100008CB
:100F4C005C1000085C10000860100008F8B500BFC9
:100F5C00F8BC08BC9E467047F8B500BFF8BC08BC8E
:040F6C009E467047E6
:100F700048656C6C6F20576F726C64210000000034
:100F80007768617420697320796F7572206E616D66
:100F900065203F0048656C6C6F000000706C6561F7
:100FA00073652C2073656E6420636F6D6D616E6474
:100FB00000000000416374696F6E5B7475726E208F
:100FC0006F6E202F207475726E206F66665D204CE8
:100FD00065645B677265656E5F6C6564202F207267
:100FE00065645F6C65645D007475726E5F6F6E2022
:100FF000677265656E5F6C65640000007475726E83
:101000005F6F6E207265645F6C6564007475726EEC
:101010005F6F666620677265656E5F6C6564000071
:101020007475726E5F6F6666207265645F6C65646E
:1010300000000000446F6E650000000077726F6E64
:101040006720636F6D6D616E6400000050617269AE
:0C1050007479204572726F72000000007D
:04105C00D1010008B6
:04106000AD010008D6
:101064000095BA0A00000000000000000102030419
:04107400060708095A
:0400000508000AFDE8
:00000001FF
